:100000000C942A000C9447000C9447000C94470071
:100010000C9447000C9447000C9447000C94470044
:100020000C9447000C9447000C942F060C94470046
:100030000C9447000C9447000C9447000C94470024
:100040000C9447000C9447000C9447000C94470014
:100050000C94470011241FBECFE5D8E0DEBFCDBF12
:1000600011E0A0E6B0E0E4E1F0E402C005900D92FA
:10007000AA3CB107D9F711E0AAECB1E001C01D928A
:10008000A13FB107E1F70E948D1A0C9408200C944F
:100090000000EF92FF920F931F937B018C0120E0F1
:1000A00030E040E05FE40E94490388238CF0C801FF
:1000B000B70120E030E040E05FE40E94C1010E940F
:1000C000A9039B01AC01205030404040504806C07D
:1000D000C801B7010E94A9039B01AC01B901CA0183
:1000E0001F910F91FF90EF900895A0E0B0E0EBE733
:1000F000F0E00C94301DDC012B01FA019C91923050
:1001000008F439C1EB018881823008F433C194309E
:1001100069F4843009F02FC111969C91119789815F
:10012000981709F428C1A6E3B1E025C1843009F489
:1001300021C18230A9F4923009F01DC19A01AD01AC
:1001400088E0EA010990AE01E90109929E0181501F
:10015000C1F7E201898111969C918923818308C1AD
:10016000923009F407C112962D903C901397EB0141
:100170008A819B811496AD90BD90CD90DC901797AD
:10018000EC80FD800E811F819101281B390BB90184
:1001900037FF04C066277727621B730B6032710537
:1001A0000CF061C0121613066CF537014801062EDB
:1001B00004C096948794779467940A94D2F721E0C8
:1001C00030E040E050E004C0220F331F441F551FB1
:1001D0006A95D2F721503040404050402E213F21B7
:1001E00040235123211531054105510521F021E01E
:1001F00030E040E050E079018A01E628F72808293C
:1002000019293CC0232BD1F1260E371E350146019A
:10021000062E04C096948794779467940A94D2F734
:1002200021E030E040E050E004C0220F331F441FC3
:10023000551F6A95D2F721503040404050402A2146
:100240003B214C215D21211531054105510521F04E
:1002500021E030E040E050E059016A01A628B728CB
:10026000C828D9280BC0821593052CF01C01AA249C
:10027000BB24650103C0EE24FF24870111969C91E5
:10028000D20111968C91981709F445C0992339F041
:10029000A80197012A193B094C095D0906C0A6016E
:1002A00095012E193F09400B510B57FD08C01182D3
:1002B0003382228224833583468357831DC081E0A5
:1002C00081833382228288279927DC01821B930B4A
:1002D000A40BB50B84839583A683B7830DC0220F2F
:1002E000331F441F551F24833583468357838281E0
:1002F000938101979383828324813581468157813D
:10030000DA01C9010197A109B1098F5F9F4FAF4F72
:10031000BF4328F30BC0918333822282EA0CFB1C7B
:100320000C1D1D1DE482F5820683178383E0808304
:10033000248135814681578157FF1AC0C901AA27F8
:1003400097FDA095BA2F81709070A070B0705695EF
:10035000479537952795822B932BA42BB52B848318
:100360009583A683B7838281938101969383828349
:10037000DF0101C0D201CD01CDB7DEB7E2E10C94BF
:100380004C1DA0E2B0E0E7ECF1E00C943C1D698369
:100390007A838B839C832D833E834F835887E9E048
:1003A000EE2EF12CEC0EFD1ECE010196B7010E943F
:1003B000D2048E010F5E1F4FCE010596B8010E9438
:1003C000D2048A8991E089278A8BC701B801AE01DE
:1003D000475E5F4F0E9475000E94FD03A096E6E015
:1003E0000C94581DA0E2B0E0E8EFF1E00C943C1D45
:1003F00069837A838B839C832D833E834F835887C5
:10040000F9E0EF2EF12CEC0EFD1ECE010196B701A6
:100410000E94D2048E010F5E1F4FCE010596B801D7
:100420000E94D204C701B801AE01475E5F4F0E942F
:1004300075000E94FD03A096E6E00C94581DA0E212
:10044000B0E0E5E2F2E00C94301D69837A838B839F
:100450009C832D833E834F835887CE010196BE0136
:10046000675F7F4F0E94D204CE010596BE016F5E8A
:100470007F4F0E94D2049985923088F0898982301A
:10048000C8F0943019F4823051F404C0843029F457
:10049000923081F486E391E0C6C0923049F420E0C6
:1004A0009A858A89981321E02A87CE010996BBC0D4
:1004B000823049F420E09A858A89981321E02A8BBA
:1004C000CE014196B0C02D843E844F8458886D88FB
:1004D0007E888F88988CEE24FF248701AA24BB2471
:1004E000650140E050E060E070E0E0E0F0E0C10174
:1004F00081709070892BE9F0E60CF71C081D191D1E
:100500009A01AB012A0D3B1D4C1D5D1D80E090E062
:10051000A0E0B0E0E614F7040805190520F481E036
:1005200090E0A0E0B0E0BA01A901480F591F6A1F8E
:100530007B1FAA0CBB1CCC1CDD1C97FE08C081E0F5
:1005400090E0A0E0B0E0A82AB92ACA2ADB2A3196B6
:10055000E032F10549F0660C771C881C991C569412
:10056000479437942794C3CFFA85EA892B893C892D
:100570008B859C85280F391F2E5F3F4F17C0CA01FE
:1005800081709070892B61F016950795F794E79428
:1005900080E090E0A0E0B0E8E82AF92A0A2B1B2BC3
:1005A00076956795579547952F5F3F4F77FDE7CF36
:1005B0000CC0440F551F661F771F17FD4160EE0CDE
:1005C000FF1C001F111F21503040403090E05907A0
:1005D00090E0690790E4790760F32B8F3C8FDB0193
:1005E000CA018F779070A070B07080349105A1051A
:1005F000B10561F447FD0AC0E114F10401051105DC
:1006000029F0405C5F4F6F4F7F4F40781A8EFE1786
:1006100011F081E08A8F4D8F5E8F6F8F78A383E01A
:10062000898FCE0149960E94FD03A096E2E10C94C9
:100630004C1DA8E1B0E0EFE1F3E00C943C1D6983B0
:100640007A838B839C832D833E834F83588789E0F5
:10065000E82EF12CEC0EFD1ECE010196B7010E9492
:10066000D2048E010F5E1F4FCE010596B8010E9485
:10067000D2048985823040F08989823028F0C70110
:10068000B8010E944A0501C08FEF6896E6E00C941D
:10069000581DA8E1B0E0EFE4F3E00C943C1D698341
:1006A0007A838B839C832D833E834F83588789E095
:1006B000E82EF12CEC0EFD1ECE010196B7010E9432
:1006C000D2048E010F5E1F4FCE010596B8010E9425
:1006D000D2048985823040F08989823028F0C701B0
:1006E000B8010E944A0501C08FEF6896E6E00C94BD
:1006F000581DA8E1B0E0EFE7F3E00C943C1D6983DE
:100700007A838B839C832D833E834F83588789E034
:10071000E82EF12CEC0EFD1ECE010196B7010E94D1
:10072000D2048E010F5E1F4FCE010596B8010E94C4
:10073000D2048985823040F08989823028F0C7014F
:10074000B8010E944A0501C081E06896E6E00C9479
:10075000581DACE0B0E0EFEAF3E00C94401D698373
:100760007A838B839C83CE010196BE016B5F7F4FA2
:100770000E94D2048D81823061F1823050F1843048
:1007800021F48E81882351F12EC02F81388537FDC9
:1007900020C06E812F3131051CF06623F9F023C093
:1007A0008EE190E0821B930B29853A854B855C8511
:1007B00004C056954795379527958A95D2F76623B5
:1007C000B1F050954095309521953F4F4F4F5F4F79
:1007D0000EC020E030E040E050E009C02FEF3FEFD6
:1007E0004FEF5FE704C020E030E040E050E8B9019F
:1007F000CA012C96E2E00C945C1DDF92EF92FF920E
:100800000F931F93FC01E480F58006811781D1804E
:100810008081823048F480E090E0A0E1B0E0E82AF6
:10082000F92A0A2B1B2BA5C0843009F49FC0823003
:1008300021F4EE24FF24870105C0E114F104010531
:10084000110519F4E0E0F0E096C0628173819FEF3A
:10085000623879070CF05BC022E83FEF261B370BAC
:100860002A3131052CF020E030E040E050E02AC091
:10087000B801A701022E04C0769567955795479554
:100880000A94D2F781E090E0A0E0B0E004C0880FC5
:10089000991FAA1FBB1F2A95D2F70197A109B10979
:1008A0008E219F21A023B1230097A105B10521F03E
:1008B00081E090E0A0E0B0E09A01AB01282B392B59
:1008C0004A2B5B2BDA01C9018F779070A070B07052
:1008D00080349105A105B10539F427FF09C0205CDA
:1008E0003F4F4F4F5F4F04C0215C3F4F4F4F5F4F13
:1008F000E0E0F0E02030A0E03A07A0E04A07A0E402
:100900005A0710F0E1E0F0E079018A0127C0603871
:10091000710564F5FB01E158FF4FD801C7018F77DE
:100920009070A070B07080349105A105B10539F4C4
:10093000E7FE0DC080E490E0A0E0B0E004C08FE3EB
:1009400090E0A0E0B0E0E80EF91E0A1F1B1F17FFA1
:1009500005C016950795F794E794319687E01695AC
:100960000795F794E7948A95D1F705C0EE24FF2404
:100970008701EFEFF0E06E2F679566276795902F60
:100980009F77D794DD24D7948E2F8695492F462BB9
:10099000582F5D29B701CA011F910F91FF90EF9069
:1009A000DF900895FC01DB01408151812281622F9B
:1009B0006F7770E0221F2227221F9381892F880FD3
:1009C000822B282F30E0991F9927991F11969C930D
:1009D000119721153105A9F54115510561057105DD
:1009E00011F482E037C082E89FEF13969C938E93B8
:1009F00012979A01AB0167E0220F331F441F551F66
:100A00006A95D1F783E08C930DC0220F331F441FEA
:100A1000551F12968D919C911397019713969C9355
:100A20008E931297203080E0380780E0480780E4FA
:100A3000580758F314962D933D934D935C93179755
:100A400008952F3F310579F4411551056105710570
:100A500019F484E08C93089564FF03C081E08C93C3
:100A600012C01C9210C02F57304013963C932E9307
:100A7000129783E08C9387E0440F551F661F771F02
:100A80008A95D1F7706414964D935D936D937C9322
:100A9000179708951F93DC01FB019C91923008F495
:100AA00047C08081823008F443C0943051F41196DD
:100AB0001C91843099F58181682F70E0611B710968
:100AC0003FC0843021F0923031F48230B9F181811D
:100AD000882389F12DC011961C9111978230F1F075
:100AE00081811817D9F412962D913C911397828128
:100AF00093818217930794F028173907BCF0149656
:100B00008D919D910D90BC91A02D248135814681C0
:100B10005781281739074A075B0718F4112341F05A
:100B20000AC082179307A407B50740F4112319F0F0
:100B300061E070E005C06FEF7FEF02C060E070E041
:100B4000CB011F910895DF93CF93CDB7DEB7EAE2D3
:100B5000F0E088E18083E0E4F0E086E88083E9E289
:100B6000F0E083E38083CF91DF910895DF93CF930B
:100B70000F92CDB7DEB78983EBE2F0E08081882F5A
:100B800090E0807290700097B9F3ECE2F0E0898118
:100B900080830F90CF91DF910895DF93CF93CDB7EE
:100BA000DEB7EBE2F0E080818823DCF7ECE2F0E0F6
:100BB0008081CF91DF910895DF93CF93CDB7DEB7DA
:100BC000A3E5B0E0E3E5F0E080818F7B8C93A3E5C3
:100BD000B0E0E3E5F0E0808188608C93A9E5B0E0C7
:100BE000E9E5F0E0808182608C93ECE5F0E08AEF4B
:100BF0008083A3E5B0E0E3E5F0E080818E7F8C9315
:100C0000A3E5B0E0E3E5F0E0808182608C93A3E5AA
:100C1000B0E0E3E5F0E080818B7F8C93CF91DF91B2
:100C20000895DF93CF9300D00F92CDB7DEB79B83AB
:100C30008A8381E089838A819B81009739F08A8148
:100C40009B819093CB018093CA0102C082E089838B
:100C500089810F900F900F90CF91DF9108951F928F
:100C60000F920FB60F9211242F933F934F935F93E0
:100C70006F937F938F939F93AF93BF93EF93FF9364
:100C8000DF93CF93CDB7DEB78091CA019091CB01AE
:100C9000009729F0E091CA01F091CB010995CF911D
:100CA000DF91FF91EF91BF91AF919F918F917F91D4
:100CB0006F915F914F913F912F910F900FBE0F90C9
:100CC0001F901895DF93CF93CDB7DEB7A3E5B0E0C3
:100CD000E3E5F0E0808180648C93A3E5B0E0E3E598
:100CE000F0E0808188608C93A3E5B0E0E3E5F0E07C
:100CF000808180628C93A3E5B0E0E3E5F0E0808141
:100D00008F7E8C93A3E5B0E0E3E5F0E08081816025
:100D10008C93A3E5B0E0E3E5F0E0808182608C9302
:100D2000A3E5B0E0E3E5F0E080818B7F8C93CF9189
:100D3000DF910895DF93CF930F92CDB7DEB789830C
:100D4000ECE5F0E0898180830F90CF91DF910895E9
:100D5000DF93CF930F92CDB7DEB78983E3E2F0E064
:100D600082E08083A1E2B0E0E1E2F0E080818E7F6A
:100D70008C93A1E2B0E0E1E2F0E080818D7F8C9382
:100D80008981882329F0E2E2F0E08981880F80835D
:100D9000A6E5B0E0E6E5F0E0808184608C930F90FA
:100DA000CF91DF910895DF93CF930F92CDB7DEB748
:100DB0008983E2E2F0E08981880F8083A6E5B0E0D4
:100DC000E6E5F0E0808184608C930F90CF91DF9115
:100DD0000895DF93CF930F92CDB7DEB71982A6E5C2
:100DE000B0E0E6E5F0E0808180628C93A6E5B0E0BB
:100DF000E6E5F0E0808180688C93E6E5F0E08081B4
:100E00008823DCF7E1E2F0E08081882F90E0887FA2
:100E100090708830910511F081E0898389810F906D
:100E2000CF91DF910895DF93CF930F92CDB7DEB7C7
:100E30001982A6E5B0E0E6E5F0E0808180628C935F
:100E4000A6E5B0E0E6E5F0E0808180688C93E6E519
:100E5000F0E080818823DCF7E1E2F0E08081882FF8
:100E600090E0887F90708031910511F082E0898355
:100E700089810F90CF91DF910895DF93CF9300D0B8
:100E8000CDB7DEB78A831982A6E5B0E0E6E5F0E0EB
:100E900080818F7D8C93E3E2F0E08A81880F8083EC
:100EA000A3E2B0E0E3E2F0E080818E7F8C93A6E5E0
:100EB000B0E0E6E5F0E0808180688C93E6E5F0E064
:100EC00080818823DCF7E1E2F0E08081882F90E0E8
:100ED000887F90708831910511F083E08983898142
:100EE0000F900F90CF91DF910895DF93CF9300D0B3
:100EF000CDB7DEB78A831982A6E5B0E0E6E5F0E07B
:100F000080818F7D8C93E3E2F0E08A81880F80837B
:100F1000A3E2B0E0E3E2F0E0808181608C93A6E59B
:100F2000B0E0E6E5F0E0808180688C93E6E5F0E0F3
:100F300080818823DCF7E1E2F0E08081882F90E077
:100F4000887F90708034910511F084E089838981D5
:100F50000F900F90CF91DF910895DF93CF9300D042
:100F6000CDB7DEB78A831982E3E2F0E08A8180831D
:100F7000A6E5B0E0E6E5F0E0808180688C93E6E5E8
:100F8000F0E080818823DCF7E1E2F0E08081882FC7
:100F900090E0887F90708832910511F085E0898318
:100FA00089810F900F90CF91DF910895DF93CF93B8
:100FB00000D00F92CDB7DEB79B838A831982A6E556
:100FC000B0E0E6E5F0E0808180648C93A6E5B0E0D7
:100FD000E6E5F0E0808180688C93E6E5F0E08081D2
:100FE0008823DCF7E1E2F0E08081882F90E0887FC1
:100FF00090708035910519F086E0898306C0E3E2A0
:10100000F0E08081EA81FB81808389810F900F90DD
:101010000F90CF91DF910895DF93CF93CDB7DEB7D7
:10102000A6E5B0E0E6E5F0E0808180618C93A6E57E
:10103000B0E0E6E5F0E0808180688C93CF91DF91AD
:101040000895DF93CF93CDB7DEB7ADE2B0E0EDE228
:10105000F0E0808180618C93ADE2B0E0EDE2F0E001
:10106000808181608C93ADE2B0E0EDE2F0E08081C0
:101070008D7F8C93AEE2B0E0EEE2F0E080818E7F77
:101080008C93ADE2B0E0EDE2F0E0808180648C937F
:10109000CF91DF910895DF93CF93CDB7DEB7ADE267
:1010A000B0E0EDE2F0E080818F7E8C93ADE2B0E0C5
:1010B000EDE2F0E0808180648C93CF91DF91089520
:1010C000DF93CF930F92CDB7DEB78983EFE2F0E0E5
:1010D00089818083EEE2F0E080818823DCF7EFE213
:1010E000F0E080810F90CF91DF910895DF93CF934F
:1010F00000D000D0CDB7DEB789836A838981282FDD
:1011000030E03C832B838B819C8182309105D9F028
:101110002B813C812330310534F48B819C818130DB
:10112000910561F01EC02B813C812330310581F097
:101130008B819C818430910581F013C0EAE3F0E05B
:101140008A8180830EC0E7E3F0E08A81808309C052
:10115000E4E3F0E08A81808304C0E1E3F0E08A8187
:1011600080830F900F900F900F90CF91DF91089593
:10117000DF93CF9300D000D0CDB7DEB789836A83E9
:101180008981282F30E03C832B838B819C818230A6
:101190009105D9F02B813C812330310534F48B81CA
:1011A0009C818130910561F01EC02B813C812330F0
:1011B000310581F08B819C818430910581F013C0D1
:1011C000EBE3F0E08A8180830EC0E8E3F0E08A81FF
:1011D000808309C0E5E3F0E08A81808304C0E2E314
:1011E000F0E08A8180830F900F900F900F90CF9145
:1011F000DF910895DF93CF9300D000D0CDB7DEB755
:101200008A8319828A81282F30E03C832B838B814B
:101210009C8182309105D9F02B813C8123303105AE
:1012200034F48B819C818130910561F01EC02B814B
:101230003C812330310581F08B819C818430910584
:1012400081F013C0E9E3F0E0808189830EC0E6E31A
:10125000F0E08081898309C0E3E3F0E08081898345
:1012600004C0E0E3F0E08081898389810F900F90D2
:101270000F900F90CF91DF910895DF93CF93CDB76B
:10128000DEB727970FB6F894DEBF0FBECDBF8983B8
:101290006A834B838B81813009F070C08981282F4C
:1012A00030E03F832E838E819F818230910551F102
:1012B0002E813F812330310534F48E819F8181302E
:1012C000910561F0D3C02E813F812330310571F14A
:1012D0008E819F8184309105E9F1C8C0AAE3B0E016
:1012E000EAE3F0E08081482F8A81282F30E081E016
:1012F00090E0022E02C0880F991F0A94E2F7842B17
:101300008C93B4C0A7E3B0E0E7E3F0E08081482F1E
:101310008A81282F30E081E090E0022E02C0880F01
:10132000991F0A94E2F7842B8C93A0C0A4E3B0E049
:10133000E4E3F0E08081482F8A81282F30E081E0CB
:1013400090E0022E02C0880F991F0A94E2F7842BC6
:101350008C938CC0A1E3B0E0E1E3F0E08081482F02
:101360008A81282F30E081E090E0022E02C0880FB1
:10137000991F0A94E2F7842B8C9378C08B81882381
:1013800009F074C08981282F30E03D832C838C8143
:101390009D818230910561F12C813D8123303105A1
:1013A00034F48C819D818130910569F05FC02C817E
:1013B0003D812330310589F18C819D8184309105F7
:1013C00009F440C053C0AAE3B0E0EAE3F0E0808152
:1013D000482F8A81282F30E081E090E0022E02C061
:1013E000880F991F0A94E2F7809584238C933EC05E
:1013F000A7E3B0E0E7E3F0E08081482F8A81282F5F
:1014000030E081E090E0022E02C0880F991F0A941C
:10141000E2F7809584238C9329C0A4E3B0E0E4E351
:10142000F0E08081482F8A81282F30E081E090E031
:10143000022E02C0880F991F0A94E2F78095842338
:101440008C9314C0A1E3B0E0E1E3F0E08081482F89
:101450008A81282F30E081E090E0022E02C0880FC0
:10146000991F0A94E2F7809584238C9327960FB6F0
:10147000F894DEBF0FBECDBFCF91DF910895DF930B
:10148000CF93CDB7DEB727970FB6F894DEBF0FBE68
:10149000CDBF89836A834B838B81813009F070C013
:1014A0008981282F30E03F832E838E819F81823077
:1014B000910551F12E813F812330310534F48E8125
:1014C0009F818130910561F0D3C02E813F8123300F
:1014D000310571F18E819F8184309105E9F1C8C099
:1014E000ABE3B0E0EBE3F0E08081482F8A81282F66
:1014F00030E081E090E0022E02C0880F991F0A942C
:10150000E2F7842B8C93B4C0A8E3B0E0E8E3F0E00A
:101510008081482F8A81282F30E081E090E0022EE0
:1015200002C0880F991F0A94E2F7842B8C93A0C005
:10153000A5E3B0E0E5E3F0E08081482F8A81282F21
:1015400030E081E090E0022E02C0880F991F0A94DB
:10155000E2F7842B8C938CC0A2E3B0E0E2E3F0E0EE
:101560008081482F8A81282F30E081E090E0022E90
:1015700002C0880F991F0A94E2F7842B8C9378C0DD
:101580008B81882309F074C08981282F30E03D8346
:101590002C838C819D818230910561F12C813D816C
:1015A0002330310534F48C819D818130910569F0BF
:1015B0005FC02C813D812330310589F18C819D8173
:1015C0008430910509F440C053C0ABE3B0E0EBE3D5
:1015D000F0E08081482F8A81282F30E081E090E080
:1015E000022E02C0880F991F0A94E2F78095842387
:1015F0008C933EC0A8E3B0E0E8E3F0E08081482FA0
:101600008A81282F30E081E090E0022E02C0880F0E
:10161000991F0A94E2F7809584238C9329C0A5E34F
:10162000B0E0E5E3F0E08081482F8A81282F30E0A8
:1016300081E090E0022E02C0880F991F0A94E2F721
:10164000809584238C9314C0A2E3B0E0E2E3F0E041
:101650008081482F8A81282F30E081E090E0022E9F
:1016600002C0880F991F0A94E2F7809584238C9317
:1016700027960FB6F894DEBF0FBECDBFCF91DF9196
:101680000895DF93CF9300D000D00F92CDB7DEB78F
:101690008A836B8319828A81282F30E03D832C83D3
:1016A0004C815D814230510541F18C819D818330B7
:1016B000910534F42C813D812130310561F052C017
:1016C0004C815D814330510551F18C819D81843085
:1016D0009105B9F147C0E9E3F0E08081282F30E0BF
:1016E0008B81882F90E0A90102C0559547958A9576
:1016F000E2F7CA018170898335C0E6E3F0E08081BA
:10170000282F30E08B81882F90E0A90102C05595E9
:1017100047958A95E2F7CA018170898323C0E3E384
:10172000F0E08081282F30E08B81882F90E0A901A4
:1017300002C0559547958A95E2F7CA018170898361
:1017400011C0E0E3F0E08081282F30E08B81882F0A
:1017500090E0A90102C0559547958A95E2F7CA0124
:101760008170898389810F900F900F900F900F9057
:10177000CF91DF910895DF93CF93CDB7DEB7A7E286
:10178000B0E0E7E2F0E0808180648C93A7E2B0E013
:10179000E7E2F0E080818F778C93A6E2B0E0E6E2AA
:1017A000F0E0808180628C93A6E2B0E0E6E2F0E0B7
:1017B000808184608C93A6E2B0E0E6E2F0E0808174
:1017C00082608C93A6E2B0E0E6E2F0E08081816086
:1017D0008C93A6E2B0E0E6E2F0E0808180688C9332
:1017E000CF91DF910895DF93CF930F92CDB7DEB7FE
:1017F0008983A7E2B0E0E7E2F0E08081807E8C930D
:10180000A7E2B0E0E7E2F0E090818981892B8C9338
:10181000A6E2B0E0E6E2F0E0808180648C93E6E24C
:10182000F0E0808182958F70882F90E081709070B9
:101830000097A9F3A6E2B0E0E6E2F0E080818061E3
:101840008C93E4E2F0E0808191810F90CF91DF9161
:1018500008950F931F93DF93CF93CDB7DEB7C45591
:10186000D0400FB6F894DEBF0FBECDBF84E06FEF5F
:101870000E94760881E067E041E00E943D0981E036
:1018800066E041E00E943D09FE01EF5AFF4F80E013
:1018900090E0A0EFB1E480839183A283B3838E01B3
:1018A000035B1F4FFE01EF5AFF4F60817181828100
:1018B000938120E030E04AEF54E40E941F02DC01F3
:1018C000CB01F80180839183A283B383FE01E35BA4
:1018D000FF4F608171818281938120E030E040E898
:1018E0005FE30E947903882344F4FE01E55BFF4F28
:1018F00081E090E09183808364C0FE01E35BFF4F51
:10190000608171818281938120E03FEF4FE757E44E
:101910000E94190318160CF043C0FE01EF5AFF4F46
:10192000608171818281938120E030E040E251E466
:101930000E941F02DC01CB018E01055B1F4FBC0121
:10194000CD010E944900DC01CB01F8019183808325
:101950001FC0FE01E75BFF4F88EC90E0918380831E
:10196000FE01E75BFF4F808191810197F1F7FE0156
:10197000E75BFF4F91838083DE01A55BBF4FFE01D4
:10198000E55BFF4F80819181019711969C938E9327
:10199000FE01E55BFF4F808191810097D1F627C062
:1019A0008E01055B1F4FFE01E35BFF4F608171817C
:1019B000828193810E944900DC01CB01F80191836F
:1019C0008083DE01A95BBF4FFE01E55BFF4F808195
:1019D00091818D939C93FE01E95BFF4F8081918102
:1019E0000197F1F7FE01E95BFF4F9183808382E06D
:1019F0000E944E11FE01ED5BFF4F80E090E0A0E7FA
:101A0000B1E480839183A283B3838E01015C1F4F75
:101A1000FE01ED5BFF4F608171818281938120E047
:101A200030E04AEF54E40E941F02DC01CB01F801D0
:101A300080839183A283B383FE01FF9660817181CD
:101A40008281938120E030E040E85FE30E947903E7
:101A500088232CF481E090E09EAF8DAF46C0FE015C
:101A6000FF96608171818281938120E03FEF4FE793
:101A700057E40E941903181664F5FE01ED5BFF4F51
:101A8000608171818281938120E030E040E251E405
:101A90000E941F02DC01CB01BC01CD010E94490064
:101AA000DC01CB019EAF8DAF0FC088EC90E09CAF06
:101AB0008BAF8BAD9CAD0197F1F79CAF8BAF8DAD2C
:101AC0009EAD01979EAF8DAF8DAD9EAD009769F72E
:101AD00016C0FE01FF9660817181828193810E9410
:101AE0004900DC01CB019EAF8DAF8DAD9EAD9AAFAD
:101AF00089AF89AD9AAD0197F1F79AAF89AF88E3C5
:101B00000E944E1180E090E0A0E8BFE38DAB9EAB59
:101B1000AFABB8AF6DA97EA98FA998AD20E030E03A
:101B20004AEF54E40E941F02DC01CB0189AB9AAB5F
:101B3000ABABBCAB69A97AA98BA99CA920E030E02A
:101B400040E85FE30E94790388232CF481E090E071
:101B500098AB8FA73FC069A97AA98BA99CA920E05F
:101B60003FEF4FE757E40E94190318164CF56DA993
:101B70007EA98FA998AD20E030E040E251E40E94B8
:101B80001F02DC01CB01BC01CD010E944900DC0138
:101B9000CB0198AB8FA70FC088EC90E09EA78DA7D4
:101BA0008DA59EA50197F1F79EA78DA78FA598A952
:101BB000019798AB8FA78FA598A9009769F714C0D4
:101BC00069A97AA98BA99CA90E944900DC01CB01D3
:101BD00098AB8FA78FA598A99CA78BA78BA59CA531
:101BE0000197F1F79CA78BA78CE00E944E1180E033
:101BF00090E0A0E8BFE38FA398A7A9A7BAA76FA119
:101C000078A589A59AA520E030E04AEF54E40E9427
:101C10001F02DC01CB018BA39CA3ADA3BEA36BA1D0
:101C20007CA18DA19EA120E030E040E85FE30E940E
:101C3000790388232CF481E090E09AA389A33FC024
:101C40006BA17CA18DA19EA120E03FEF4FE757E45F
:101C50000E94190318164CF56FA178A589A59AA5BD
:101C600020E030E040E251E40E941F02DC01CB01A1
:101C7000BC01CD010E944900DC01CB019AA389A3DC
:101C80000FC088EC90E098A38F8F8F8D98A101975B
:101C9000F1F798A38F8F89A19AA101979AA389A39D
:101CA00089A19AA1009769F714C06BA17CA18DA1AD
:101CB0009EA10E944900DC01CB019AA389A389A1BE
:101CC0009AA19E8F8D8F8D8D9E8D0197F1F79E8F9E
:101CD0008D8F81E00E944E1180E090E0A0E7B1E49A
:101CE000898F9A8FAB8FBC8F698D7A8D8B8D9C8DF0
:101CF00020E030E04AEF54E40E941F02DC01CB01F7
:101D00008D8B9E8BAF8BB88F6D897E898F89988DD7
:101D100020E030E040E85FE30E94790388232CF460
:101D200081E090E09C8B8B8B3FC06D897E898F8991
:101D3000988D20E03FEF4FE757E40E9419031816F3
:101D40004CF5698D7A8D8B8D9C8D20E030E040E2E2
:101D500051E40E941F02DC01CB01BC01CD010E94B5
:101D60004900DC01CB019C8B8B8B0FC088EC90E091
:101D70009A8B898B89899A890197F1F79A8B898B3C
:101D80008B899C8901979C8B8B8B8B899C89009775
:101D900069F714C06D897E898F89988D0E944900EA
:101DA000DC01CB019C8B8B8B8B899C89988B8F87DB
:101DB0008F8598890197F1F7988B8F8786E00E942D
:101DC0004E1180E090E0A0E0B0E48B879C87AD8767
:101DD000BE876B857C858D859E8520E030E04AEF4F
:101DE00054E40E941F02DC01CB018F839887A987EE
:101DF000BA876F81788589859A8520E030E040E850
:101E00005FE30E94790388232CF481E090E09E83B5
:101E10008D833FC06F81788589859A8520E03FEF6B
:101E20004FE757E40E94190318164CF56B857C8523
:101E30008D859E8520E030E040E251E40E941F0243
:101E4000DC01CB01BC01CD010E944900DC01CB01CA
:101E50009E838D830FC088EC90E09C838B838B8165
:101E60009C810197F1F79C838B838D819E810197E3
:101E70009E838D838D819E81009769F714C06F8149
:101E8000788589859A850E944900DC01CB019E8373
:101E90008D838D819E819A83898389819A8101971F
:101EA000F1F79A838983CC5ADF4F0FB6F894DEBFDF
:101EB0000FBECDBFCF91DF911F910F910895DF939A
:101EC000CF93CDB7DEB7E9970FB6F894DEBF0FBE5C
:101ED000CDBF89AF81E067E041E00E943F0A80E02A
:101EE00090E0A0E8BFE38DAB9EABAFABB8AF6DA900
:101EF0007EA98FA998AD20E030E04AEF54E40E941B
:101F00001F02DC01CB0189AB9AABABABBCAB69A9BF
:101F10007AA98BA99CA920E030E040E85FE30E9409
:101F2000790388232CF481E090E098AB8FA73FC021
:101F300069A97AA98BA99CA920E03FEF4FE757E454
:101F40000E94190318164CF56DA97EA98FA998ADAA
:101F500020E030E040E251E40E941F02DC01CB01AE
:101F6000BC01CD010E944900DC01CB0198AB8FA7D9
:101F70000FC088EC90E09EA78DA78DA59EA5019728
:101F8000F1F79EA78DA78FA598A9019798AB8FA76A
:101F90008FA598A9009769F714C069A97AA98BA998
:101FA0009CA90E944900DC01CB0198AB8FA78FA5AB
:101FB00098A99CA78BA78BA59CA50197F1F79CA737
:101FC0008BA781E066E041E00E943F0A80E090E05C
:101FD000A0E8BFE38FA398A7A9A7BAA76FA178A588
:101FE00089A59AA520E030E04AEF54E40E941F0240
:101FF000DC01CB018BA39CA3ADA3BEA36BA17CA1F1
:102000008DA19EA120E030E040E85FE30E947903CB
:1020100088232CF481E090E09AA389A33FC06BA1B0
:102020007CA18DA19EA120E03FEF4FE757E40E94E5
:10203000190318164CF56FA178A589A59AA520E07B
:1020400030E040E251E40E941F02DC01CB01BC0100
:10205000CD010E944900DC01CB019AA389A30FC0E6
:1020600088EC90E098A38F8F8F8D98A10197F1F75E
:1020700098A38F8F89A19AA101979AA389A389A177
:102080009AA1009769F714C06BA17CA18DA19EA1B4
:102090000E944900DC01CB019AA389A389A19AA1DE
:1020A0009E8F8D8F8D8D9E8D0197F1F79E8F8D8FD9
:1020B00084E069AD0E94B80880E090E0A0E8BFE34A
:1020C000898F9A8FAB8FBC8F698D7A8D8B8D9C8D0C
:1020D00020E030E04AEF54E40E941F02DC01CB0113
:1020E0008D8B9E8BAF8BB88F6D897E898F89988DF4
:1020F00020E030E040E85FE30E94790388232CF47D
:1021000081E090E09C8B8B8B3FC06D897E898F89AD
:10211000988D20E03FEF4FE757E40E94190318160F
:102120004CF5698D7A8D8B8D9C8D20E030E040E2FE
:1021300051E40E941F02DC01CB01BC01CD010E94D1
:102140004900DC01CB019C8B8B8B0FC088EC90E0AD
:102150009A8B898B89899A890197F1F79A8B898B58
:102160008B899C8901979C8B8B8B8B899C89009791
:1021700069F714C06D897E898F89988D0E94490006
:10218000DC01CB019C8B8B8B8B899C89988B8F87F7
:102190008F8598890197F1F7988B8F8781E066E0AA
:1021A00040E00E943F0A80E090E0A0E2B1E48B872B
:1021B0009C87AD87BE876B857C858D859E8520E05D
:1021C00030E04AEF54E40E941F02DC01CB018F8310
:1021D0009887A987BA876F81788589859A8520E055
:1021E00030E040E85FE30E94790388232CF481E02B
:1021F00090E09E838D833FC06F81788589859A8525
:1022000020E03FEF4FE757E40E94190318164CF502
:102210006B857C858D859E8520E030E040E251E431
:102220000E941F02DC01CB01BC01CD010E944900CC
:10223000DC01CB019E838D830FC088EC90E09C83F2
:102240008B838B819C810197F1F79C838B838D819C
:102250009E8101979E838D838D819E81009769F772
:1022600014C06F81788589859A850E944900DC01B8
:10227000CB019E838D838D819E819A838983898101
:102280009A810197F1F79A838983E9960FB6F894BA
:10229000DEBF0FBECDBFCF91DF910895DF93CF9307
:1022A000CDB7DEB7E9970FB6F894DEBF0FBECDBF4E
:1022B00089AF81E067E040E00E943F0A80E090E063
:1022C000A0E8BFE38DAB9EABAFABB8AF6DA97EA965
:1022D0008FA998AD20E030E04AEF54E40E941F023D
:1022E000DC01CB0189AB9AABABABBCAB69A97AA9DA
:1022F0008BA99CA920E030E040E85FE30E947903CD
:1023000088232CF481E090E098AB8FA73FC069A9A7
:102310007AA98BA99CA920E03FEF4FE757E40E94E0
:10232000190318164CF56DA97EA98FA998AD20E068
:1023300030E040E251E40E941F02DC01CB01BC010D
:10234000CD010E944900DC01CB0198AB8FA70FC0E3
:1023500088EC90E09EA78DA78DA59EA50197F1F72B
:102360009EA78DA78FA598A9019798AB8FA78FA53A
:1023700098A9009769F714C069A97AA98BA99CA9A3
:102380000E944900DC01CB0198AB8FA78FA598A9CB
:102390009CA78BA78BA59CA50197F1F79CA78BA762
:1023A00081E066E041E00E943F0A80E090E0A0E822
:1023B000BFE38FA398A7A9A7BAA76FA178A589A5FE
:1023C0009AA520E030E04AEF54E40E941F02DC01AD
:1023D000CB018BA39CA3ADA3BEA36BA17CA18DA1BC
:1023E0009EA120E030E040E85FE30E94790388236B
:1023F0002CF481E090E09AA389A33FC06BA17CA15B
:102400008DA19EA120E03FEF4FE757E40E94190302
:1024100018164CF56FA178A589A59AA520E030E0A3
:1024200040E251E40E941F02DC01CB01BC01CD015E
:102430000E944900DC01CB019AA389A30FC088EC5C
:1024400090E098A38F8F8F8D98A10197F1F798A3B3
:102450008F8F89A19AA101979AA389A389A19AA193
:10246000009769F714C06BA17CA18DA19EA10E9469
:102470004900DC01CB019AA389A389A19AA19E8F6F
:102480008D8F8D8D9E8D0197F1F79E8F8D8F84E0BE
:1024900069AD0E94B80880E090E0A0E8BFE3898FB2
:1024A0009A8FAB8FBC8F698D7A8D8B8D9C8D20E040
:1024B00030E04AEF54E40E941F02DC01CB018D8B17
:1024C0009E8BAF8BB88F6D897E898F89988D20E028
:1024D00030E040E85FE30E94790388232CF481E038
:1024E00090E09C8B8B8B3FC06D897E898F89988D06
:1024F00020E03FEF4FE757E40E94190318164CF510
:10250000698D7A8D8B8D9C8D20E030E040E251E426
:102510000E941F02DC01CB01BC01CD010E944900D9
:10252000DC01CB019C8B8B8B0FC088EC90E09A8BED
:10253000898B89899A890197F1F79A8B898B8B8985
:102540009C8901979C8B8B8B8B899C89009769F761
:1025500014C06D897E898F89988D0E944900DC01A5
:10256000CB019C8B8B8B8B899C89988B8F878F85DC
:1025700098890197F1F7988B8F8781E066E040E0BA
:102580000E943F0A80E090E0A0E2B1E48B879C8744
:10259000AD87BE876B857C858D859E8520E030E08C
:1025A0004AEF54E40E941F02DC01CB018F8398871D
:1025B000A987BA876F81788589859A8520E030E080
:1025C00040E85FE30E94790388232CF481E090E0E7
:1025D0009E838D833FC06F81788589859A8520E0B1
:1025E0003FEF4FE757E40E94190318164CF56B852F
:1025F0007C858D859E8520E030E040E251E40E949C
:102600001F02DC01CB01BC01CD010E944900DC01AD
:10261000CB019E838D830FC088EC90E09C838B83DD
:102620008B819C810197F1F79C838B838D819E81A7
:1026300001979E838D838D819E81009769F714C0D9
:102640006F81788589859A850E944900DC01CB01DC
:102650009E838D838D819E819A83898389819A81CE
:102660000197F1F79A838983E9960FB6F894DEBF54
:102670000FBECDBFCF91DF910895DF93CF9300D0F0
:1026800000D0CDB7DEB789836A838A81282F30E0F6
:102690003C832B838B819C81009731F02B813C8183
:1026A0002130310531F00AC0898180680E944E11C5
:1026B00005C08981805C80680E944E110F900F9048
:1026C0000F900F90CF91DF910895DF93CF9300D0BB
:1026D0000F92CDB7DEB79B838A8319820EC08981A2
:1026E000282F30E08A819B81FC01E20FF31F80815B
:1026F0000E945F0F89818F5F89838981282F30E055
:102700008A819B81FC01E20FF31F8081882339F7C6
:102710000F900F900F90CF91DF910895DF93CF939B
:10272000CDB7DEB763970FB6F894DEBF0FBECDBF4F
:102730008F87688B498B1E861D868F85282F30E0FA
:102740003B8B2A8B8A899B898037910509F4C1C00C
:102750002A893B89213731056CF48A899B89863621
:10276000910509F476C02A893B892836310509F498
:1027700090C0CEC08A899B898737910551F12A89FB
:102780003B892937310539F08A899B89833791053F
:1027900009F43FC0BDC080E40E944E111C861B8618
:1027A00010C08B859C85880F991FFC01E25BFE4F52
:1027B000808191810E945F0F8B859C8501969C870B
:1027C0008B878B859C85883091055CF31E861D86E2
:1027D0009FC088E40E944E111A86198610C0898510
:1027E0009A85880F991FFC01E25AFE4F80819181E2
:1027F0000E945F0F89859A8501969A8789878985C6
:102800009A85883091055CF381E090E09E878D8702
:102810007FC080E50E944E1118861F8210C08F81F4
:102820009885880F991FFC01E259FE4F80819181A4
:102830000E945F0F8F819885019698878F838F8183
:102840009885883091055CF382E090E09E878D87C3
:102850005FC088E50E944E111E821D8210C08D81CE
:102860009E81880F991FFC01E258FE4F8081918163
:102870000E945F0F8D819E8101969E838D838D8145
:102880009E81883091055CF383E090E09E878D8780
:102890003FC080E60E944E111C821B8210C08B81BB
:1028A0009C81880F991FFC01E256FE4F8081918127
:1028B0000E945F0F8B819C8101969C838B838B810F
:1028C0009C81883091055CF384E090E09E878D8741
:1028D0001FC088E60E944E111A82198210C0898199
:1028E0009A81880F991FFC01E257FE4F80819181E8
:1028F0000E945F0F89819A8101969A8389838981D9
:102900009A81883091055CF385E090E09E878D8701
:10291000888969890E943D138D850E945F0F6396A7
:102920000FB6F894DEBF0FBECDBFCF91DF910895F3
:10293000DF93CF93CDB7DEB761970FB6F894DEBFC4
:102940000FBECDBF8F878F85282F30E0398B288B26
:10295000888999898037910509F48CC0288939893B
:10296000213731059CF4888999898636910509F4C7
:1029700059C0288939892836310509F467C0888902
:1029800099898436910509F489C09BC028893989C1
:1029900027373105F9F0888999898937910531F010
:1029A000288939892337310549F18BC080E40E9499
:1029B0004E111E861D8608C080E00E945F0F8D8527
:1029C0009E8501969E878D878D859E858830910591
:1029D0009CF377C088E40E944E111C861B8608C0B9
:1029E00080E00E945F0F8B859C8501969C878B877A
:1029F0008B859C85883091059CF363C080E50E949F
:102A00004E111A86198608C080E00E945F0F8985E2
:102A10009A8501969A87898789859A858830910554
:102A20009CF34FC088E50E944E1118861F8208C093
:102A300080E00E945F0F8F819885019698878F8331
:102A40008F819885883091059CF33BC080E60E9479
:102A50004E111E821D8208C080E00E945F0F8D8192
:102A60009E8101969E838D838D819E818830910504
:102A70009CF327C088E60E944E111C821B8208C06E
:102A800080E00E945F0F8B819C8101969C838B83E9
:102A90008B819C81883091059CF313C088E70E944C
:102AA0004E111A82198208C080E00E945F0F89814E
:102AB0009A8101969A83898389819A8188309105C8
:102AC0009CF361960FB6F894DEBF0FBECDBFCF91D9
:102AD000DF910895DF93CF9300D000D0CDB7DEB75C
:102AE0008B836C8380E70E944E111A82198208C082
:102AF00080E00E945F0F89819A8101969A83898381
:102B000089819A81883091059CF38B816C810E9428
:102B10003D1386E00E945F0F0F900F900F900F9073
:102B2000CF91DF910895DF93CF9300D000D0CDB740
:102B3000DEB78B836C8388E70E944E111A8219825C
:102B400008C08FE10E945F0F89819A8101969A8364
:102B5000898389819A81883091059CF38B816C816E
:102B60000E943D1387E00E945F0F0F900F900F901F
:102B70000F90CF91DF910895DF93CF93CDB7DEB75C
:102B800081E00E944E11CF91DF910895DF93CF93A2
:102B9000CDB7DEB783E06FE00E94760883E06FEF89
:102BA0000E94B808CF91DF910895DF93CF93CDB7FE
:102BB000DEB762970FB6F894DEBF0FBECDBF198A9D
:102BC000188A8FEF8F87198AB9C08989282F30E03A
:102BD00081E090E002C0880F991F2A95E2F7982FB4
:102BE000909583E0692F0E94B80884E0888B9FC08D
:102BF00083E068890E94410B882309F095C0888989
:102C0000882F90E0AC01445050408989282F30E053
:102C1000CA01880F991F880F991F820F931FFC010B
:102C2000E055FE4F80818F8783E068890E94410BC9
:102C30008823D1F380E090E0A0E2B1E48B879C8709
:102C4000AD87BE876B857C858D859E8520E030E0D5
:102C50004AEF54E40E941F02DC01CB018F83988766
:102C6000A987BA876F81788589859A8520E030E0C9
:102C700040E85FE30E94790388232CF481E090E030
:102C80009E838D833FC06F81788589859A8520E0FA
:102C90003FEF4FE757E40E94190318164CF56B8578
:102CA0007C858D859E8520E030E040E251E40E94E5
:102CB0001F02DC01CB01BC01CD010E944900DC01F7
:102CC000CB019E838D830FC088EC90E09C838B8327
:102CD0008B819C810197F1F79C838B838D819E81F1
:102CE00001979E838D838D819E81009769F714C023
:102CF0006F81788589859A850E944900DC01CB0126
:102D00009E838D838D819E819A83898389819A8117
:102D10000197F1F79A83898383E0698941E00E94F2
:102D20003F0A8F858A8B10C088898F5F888B88893E
:102D3000883008F45DCF89898F5F898B89898430D9
:102D400008F443CF8F858A8B8A8962960FB6F894F0
:102D5000DEBF0FBECDBFCF91DF910895DF93CF933C
:102D6000CDB7DEB762970FB6F894DEBF0FBECDBF0A
:102D70008B87CE0105969F878E87ECE8F0E0F98B74
:102D8000E88BF6E0FA8BE889F989008088899989CF
:102D90000196998B888BEE85FF8500828E859F85B5
:102DA00001969F878E879A8991509A8BEA89EE23A4
:102DB00051F78B858F3F09F426C18B85843609F046
:102DC0003FC08091AE019091AF010A97FC01EB5298
:102DD000FE4F10828091AE019091AF018A30910533
:102DE00064F18091AE019091AF01282F8091CC01C8
:102DF0009091CD01982F822F692F0E946A158091A2
:102E0000AE019091AF01282F8091CC019091CD011E
:102E1000982F822F692F0E943D138091AE019091CF
:102E2000AF018B3091054CF08091AE019091AF01D4
:102E300001979093AF018093AE01F2E0FC87E4C06C
:102E40008B85833409F0B1C01C821B821A8297C023
:102E50002A813B81CE010596FC01E20FF31F208100
:102E60008A819B81FC01EB52FE4F8081281709F477
:102E700081C08091CE018F5F8093CE018091CE0181
:102E8000843008F456C080E060E00E943D1380E684
:102E900090E00E94651380E061E00E943D1381E7AD
:102EA00090E00E94651381E062E041E00E943F0AE9
:102EB00081E063E040E00E943F0A82E064E041E09C
:102EC0000E943F0A82E065E041E00E943F0A82E002
:102ED00066E041E00E943F0A82E067E041E00E9434
:102EE0003F0A0E94D51589838981853361F682E086
:102EF00064E040E00E943F0A82E065E040E00E941A
:102F00003F0A82E066E040E00E943F0A82E067E01C
:102F100040E00E943F0A81E062E040E00E943F0AF8
:102F200081E063E040E00E943F0A0E94BC151092DD
:102F3000CE010E94BC1580E060E00E943D1384E752
:102F400090E00E94651380E061E00E943D1384E8F8
:102F500090E00E9465130E94D5158436E1F70E9427
:102F6000BC1581E08C838AE090E09093AF01809360
:102F7000AE010BC08A819B8101969B838A838A81E3
:102F80009B81853091050CF463CF8C81882359F4A3
:102F90000E94BC158AE090E09093AF018093AE014F
:102FA00081E08C8731C01C862FC08091AE0190914A
:102FB000AF010A97FC01EB52FE4F8B858083809115
:102FC000AE019091AF01282F8091CC019091CD015D
:102FD000982F822F692F0E943D138091AE0190910E
:102FE000AF018F3091054CF48091AE019091AF010B
:102FF00001969093AF018093AE018B850E945F0F85
:1030000093E09C8701C002C0EC85ED878D856296B8
:103010000FB6F894DEBF0FBECDBFCF91DF910895FC
:10302000DF93CF93CDB7DEB7A0970FB6F894DEBF8E
:103030000FBECDBF898FCE0143969D8F8C8FE0EB65
:10304000F0E0FF8FEE8FF6E0F8A3EE8DFF8D0080AD
:103050008E8D9F8D01969F8F8E8FEC8DFD8D0082C2
:103060008C8D9D8D01969D8F8C8F98A1915098A3EA
:10307000E8A1EE2351F7898D8F3F09F49DC1898D19
:10308000843609F03FC08091AE019091AF010A975C
:10309000FC01E053FE4F10828091AE019091AF0190
:1030A0008A30910564F18091AE019091AF01282F93
:1030B0008091CC019091CD01982F822F692F0E9491
:1030C0006A158091AE019091AF01282F8091CC01BB
:1030D0009091CD01982F822F692F0E943D138091EE
:1030E000AE019091AF018B3091054CF08091AE0113
:1030F0009091AF0101979093AF018093AE01F2E000
:10310000FA8F5BC1898D833409F028C11A8A198A24
:10311000188A97C028893989CE014396FC01E20FAD
:10312000F31F208188899989FC01E053FE4F80813B
:10313000281709F481C08091CF018F5F8093CF0160
:103140008091CF01843008F456C080E060E00E9496
:103150003D1380E690E00E94651380E061E00E94EC
:103160003D1381E790E00E94651381E062E041E059
:103170000E943F0A81E063E040E00E943F0A82E053
:1031800064E041E00E943F0A82E065E041E00E9485
:103190003F0A82E066E041E00E943F0A82E067E089
:1031A00041E00E943F0A0E94D5158F878F858533A5
:1031B00061F682E064E040E00E943F0A82E065E060
:1031C00040E00E943F0A82E066E040E00E943F0A41
:1031D00082E067E040E00E943F0A81E062E040E078
:1031E0000E943F0A81E063E040E00E943F0A0E94A3
:1031F000BC151092CF010E94BC1580E060E00E94D7
:103200003D1382E990E00E94651380E061E00E9436
:103210003D1384E890E00E9465130E94D515843622
:10322000E1F70E94BC1581E08A8B8AE090E09093E0
:10323000AF018093AE010BC0888999890196998B63
:10324000888B88899989853091050CF463CF8A89A8
:10325000882309F081C00E94BC1580E060E00E94D4
:103260003D1381EA90E00E94651380E090E0AAE7B8
:10327000B4E48B879C87AD87BE876B857C858D8505
:103280009E8520E030E04AEF54E40E941F02DC01FA
:10329000CB018F839887A987BA876F8178858985C5
:1032A0009A8520E030E040E85FE30E9479038823BC
:1032B0002CF481E090E09E838D833FC06F81788500
:1032C00089859A8520E03FEF4FE757E40E94190374
:1032D00018164CF56B857C858D859E8520E030E049
:1032E00040E251E40E941F02DC01CB01BC01CD0190
:1032F0000E944900DC01CB019E838D830FC088ECC6
:1033000090E09C838B838B819C810197F1F79C8358
:103310008B838D819E8101979E838D838D819E817C
:10332000009769F714C06F81788589859A850E9416
:103330004900DC01CB019E838D838D819E819A8320
:10334000898389819A810197F1F79A8389830E9401
:10335000BC1581E08A8F31C01A8E2FC08091AE01DA
:103360009091AF010A97FC01E053FE4F898D808355
:103370008091AE019091AF01282F8091CC01909166
:10338000CD01982F822F692F0E943D138091AE01AD
:103390009091AF018F3091054CF48091AE019091E6
:1033A000AF0101969093AF018093AE018AE20E9433
:1033B0005F0F93E09A8F01C002C0EA8DEB8F8B8D77
:1033C000A0960FB6F894DEBF0FBECDBFCF91DF91B0
:1033D0000895DF93CF930F92CDB7DEB789838981AC
:1033E0008F3F41F08981805389838981882F90E0C4
:1033F0000E94761A0F90CF91DF910895DF93CF93BB
:10340000CDB7DEB7AFE5B0E0EFE5F0E080818068F2
:103410008C93CF91DF910895DF93CF93CDB7DEB733
:10342000AFE5B0E0EFE5F0E080818F778C93CF914E
:10343000DF910895DF93CF93CDB7DEB7A5E5B0E078
:10344000E5E5F0E080818E7F8C93A5E5B0E0E5E5D1
:10345000F0E080818D7F8C93ABE5B0E0EBE5F0E0B0
:10346000808180648C93CF91DF910895DF93CF9317
:10347000CDB7DEB7A5E5B0E0E5E5F0E080818B7F74
:103480008C93A5E5B0E0E5E5F0E08081877F8C9343
:10349000ABE5B0E0EBE5F0E0808180688C93CF9104
:1034A000DF910895DF93CF93CDB7DEB7A4E5B0E009
:1034B000E4E5F0E0808180648C93ABE5B0E0EBE57F
:1034C000F0E0808180628C93CF91DF910895DF934B
:1034D000CF93CDB7DEB782E06FEF0E94760882E02F
:1034E0006FEF0E94B808CF91DF910895DF93CF93DB
:1034F0000F92CDB7DEB789838981882F90E0FC01D8
:10350000E054FE4F8081982F909582E0692F0E94B1
:10351000B8080F90CF91DF910895DF93CF9300D03B
:10352000CDB7DEB782E064E041E00E943D0982E071
:1035300065E041E00E943D0982E066E041E00E94D2
:103540003D0982E067E041E00E943D0981E060E0E2
:1035500040E00E943D0981E061E040E00E943D09B9
:1035600081E062E041E00E943D0981E063E041E0EA
:103570000E943D090E94BB0B0E94290C0E94C615A7
:103580001A8219820E94620682E063E041E00E9492
:103590003D098A81813019F00E94EB1C8A838A815F
:1035A000813031F48981813019F00E940E1D8983A8
:1035B0008981813071F70E94DE1AEBCFDF93CF93C0
:1035C000CDB7DEB760970FB6F894DEBF0FBECDBFA4
:1035D00080E060E00E943D1386EB90E00E9465135E
:1035E00080E061E00E943D138EEB90E00E94651345
:1035F00087E060E00E943D1387EC90E00E94651335
:1036000089E061E00E943D1380ED90E00E94651327
:103610000E94D5158F878F858133A9F482E064E0FD
:1036200041E00E943F0A82E065E041E00E943F0ADB
:1036300082E066E041E00E943F0A82E067E041E00C
:103640000E943F0ABFC18F858233A9F482E064E003
:1036500040E00E943F0A82E065E040E00E943F0AAD
:1036600082E066E040E00E943F0A82E067E040E0DE
:103670000E943F0AA7C18F85833309F0A1C00E9431
:10368000BC1580E00E94F30B8093F0018091F00163
:10369000282F30E000D000D000D0EDB7FEB7319633
:1036A0008AED91E09183808387ED90E0938382831C
:1036B000358324830E94671D8DB79EB706960FB68B
:1036C000F8949EBF0FBE8DBF80E060E00E943D1366
:1036D0008AED91E00E9465130E94D5158F8780E0E6
:1036E00061E00E943D1383EE90E00E94651380919B
:1036F000F0018436A8F482E064E041E00E943F0AD1
:1037000082E065E041E00E943F0A82E066E041E03D
:103710000E943F0A82E067E041E00E943F0A35C014
:103720008091F0018436C8F08091F001883CA8F4C3
:1037300082E064E041E00E943F0A82E065E041E00F
:103740000E943F0A82E066E041E00E943F0A82E078
:1037500067E040E00E943F0A18C08091F001883C79
:10376000A0F082E064E040E00E943F0A82E065E071
:1037700040E00E943F0A82E066E041E00E943F0A8A
:1037800082E067E041E00E943F0A8F85813309F0C3
:1037900078CF82E064E040E00E943F0A82E065E08A
:1037A00040E00E943F0A82E066E040E00E943F0A5B
:1037B00082E067E040E00E943F0A0E94BC1502C11F
:1037C0008F85843309F0FEC00E94BC1580E060E064
:1037D0000E943D1383EF90E00E94651380E061E05A
:1037E0000E943D138AEF90E00E94651386E060E03E
:1037F0000E943D1383E091E00E94651389E061E03F
:103800000E943D138EE091E00E9465130E94D51541
:103810008F878F85853329F486E990E00E949A0688
:10382000D5CF8F85863329F480E090E00E949A06F8
:10383000CDCF8F85873309F0C1C00E94BC1581E0D0
:103840000E94F30B8093F0018091F001282F30E06B
:1038500000D000D000D0EDB7FEB731968AED91E0F0
:103860009183808385E191E09383828335832483F0
:103870000E94671D8DB79EB706960FB6F8949EBF3F
:103880000FBE8DBF80E060E00E943D138AED91E0A5
:103890000E9465130E94D5158F8780E061E00E9429
:1038A0003D1383EE90E00E9465138091F001823316
:1038B00008F477C08FEF90E00E949A0680E090E0D5
:1038C000AAE7B4E48B879C87AD87BE876B857C8530
:1038D0008D859E8520E030E04AEF54E40E941F026F
:1038E000DC01CB018F839887A987BA876F817885A0
:1038F00089859A8520E030E040E85FE30E94790303
:1039000088232CF481E090E09E838D833FC06F81FB
:10391000788589859A8520E03FEF4FE757E40E943C
:10392000190318164CF56B857C858D859E8520E0E6
:1039300030E040E251E40E941F02DC01CB01BC01F7
:10394000CD010E944900DC01CB019E838D830FC015
:1039500088EC90E09C838B838B819C810197F1F7AD
:103960009C838B838D819E8101979E838D838D8126
:103970009E81009769F719C06F81788589859A853E
:103980000E944900DC01CB019E838D838D819E8145
:103990009A83898389819A810197F1F79A83898330
:1039A00004C086E990E00E949A068F85813309F071
:1039B00046CF80E090E00E949A0608CF8F8588333A
:1039C00009F004CF60960FB6F894DEBF0FBECDBFEE
:1039D000CF91DF910895DF93CF9300D00F92CDB7B1
:1039E000DEB780E060E00E943D1380E291E00E943B
:1039F00065130E94D5158A838A810E94AE16898339
:103A00008981813019F481E08B8301C01B828B8115
:103A10000F900F900F90CF91DF910895DF93CF9388
:103A200000D00F92CDB7DEB780E060E00E943D137A
:103A30008BE291E00E9465130E94D5158A838A81EA
:103A40000E94101889838981813021F481E08B8361
:103A50008B8100C00F900F900F90CF91DF91089550
:103A60002F923F924F925F926F927F928F929F928E
:103A7000AF92BF92CF92DF92EF92FF920F931F937C
:103A8000CF93DF93CDB7DEB7CA1BDB0B0FB6F8942D
:103A9000DEBF0FBECDBF09942A88398848885F846D
:103AA0006E847D848C849B84AA84B984C884DF80DE
:103AB000EE80FD800C811B81AA81B981CE0FD11DC2
:103AC0000FB6F894DEBF0FBECDBFED010895AEE096
:103AD000B0E0EDE6FDE10C943E1D0D891E8986E007
:103AE0008C831A8309838FEF9FE79E838D839E01CA
:103AF000275E3F4FCE0101966F89788DA9010E9404
:103B00008B1D2F813885020F131FF80110822E960E
:103B1000E4E00C945A1DABE0B0E0E1E9FDE10C9467
:103B2000301D3C012B015A01FC0117821682838152
:103B300081FD03C06FEF7FEFC6C19AE0892E1E01A1
:103B40000894211C311CF3012381F20123FD85918E
:103B500023FF81912F01882309F4B2C1853239F402
:103B600023FD859123FF81912F01853229F490E077
:103B7000B3010E947E1FE7CF982FFF24EE249924E3
:103B8000FFE1FF15D0F09B3269F09C3228F49032AF
:103B900059F0933291F40EC09D3249F0903369F49C
:103BA00041E024C052E0F52A84E0F82A28C098E0D9
:103BB000F92A25C0E0E1FE2A22C0F7FC29C0892F9E
:103BC00080538A3070F4F6FE05C0989C902C112426
:103BD000980E15C0E89CE02C1124E80EF0E2FF2AB4
:103BE0000EC09E3229F4F6FC6BC140E4F42A07C0F3
:103BF0009C3619F450E8F52A02C0983649F4F201CF
:103C000023FD959123FF91912F01992309F0B8CFBE
:103C1000892F8554833018F08052833038F444E083
:103C200050E0A40EB51E5FE359830FC0933631F008
:103C3000933779F0933509F056C020C0F5018081A3
:103C4000898342E050E0A40EB51E610101E010E05E
:103C500012C0F501C080D180F6FC03C06FEF7FEF8A
:103C600002C0692D70E042E050E0A40EB51EC6010E
:103C70000E94731F8C015FE7F52214C0F501C0801C
:103C8000D180F6FC03C06FEF7FEF02C0692D70E0BA
:103C900042E050E0A40EB51EC6010E94681F8C01D0
:103CA00050E8F52AF3FE07C01AC080E290E0B301A5
:103CB0000E947E1FEA948E2D90E008171907A8F342
:103CC0000EC0F601F7FC8591F7FE81916F0190E03F
:103CD000B3010E947E1FE110EA94015010400115CB
:103CE000110579F7EAC0943611F0993669F5F7FEB7
:103CF00008C0F501208131814281538184E090E048
:103D00000AC0F501808191819C01442737FD4095CF
:103D1000542F82E090E0A80EB91E9FE6F92257FFCB
:103D200009C050954095309521953F4F4F4F5F4FBB
:103D3000E0E8FE2ACA01B901A1012AE030E00E94B0
:103D4000AA1FD82ED21840C0953729F41F2D1F7EE8
:103D50002AE030E01DC01F2D197F9F3661F090379B
:103D600020F4983509F0ACC00FC0903739F098377F
:103D700009F0A6C004C028E030E00AC0106114FDBC
:103D8000146020E130E004C014FD166020E132E050
:103D900017FF08C0F501608171818281938144E041
:103DA00050E008C0F50180819181BC0180E090E085
:103DB00042E050E0A40EB51EA1010E94AA1FD82E19
:103DC000D2188FE7F82EF122F6FE0BC05EEFF52237
:103DD000D91438F4F4FE07C0F2FC05C08FEEF822C7
:103DE00002C01D2D01C0192DF4FE0DC0FE01ED0D08
:103DF000F11D8081803319F499EEF92208C01F5F0C
:103E0000F2FE05C003C08F2D867809F01F5F0F2DCD
:103E1000F3FC14C0F0FE0FC01E1510F09D2C0BC05B
:103E20009D2C9E0C911A1E2D06C080E290E0B301DD
:103E30000E947E1F1F5F1E15C0F304C01E1510F4E4
:103E4000E11A01C0EE2404FF0FC080E390E0B3014B
:103E50000E947E1F02FF1DC001FD03C088E790E0A5
:103E60000EC088E590E00BC0802F867891F001FFAE
:103E700002C08BE201C080E2F7FC8DE290E0B3016A
:103E80000E947E1F06C080E390E0B3010E947E1F67
:103E90009A94D914C0F3DA94F101ED0DF11D8081EB
:103EA00090E0B3010E947E1FDD20A9F706C080E2EA
:103EB00090E0B3010E947E1FEA94EE20C1F743CE4A
:103EC000F30166817781CB012B96E2E10C944C1DC6
:103ED000FC010590615070400110D8F780959095D5
:103EE0008E0F9F1F0895FC016150704001900110DA
:103EF000D8F7809590958E0F9F1F08950F931F936D
:103F0000CF93DF938C01EB018B8181FF1BC082FF7C
:103F10000DC02E813F818C819D812817390764F463
:103F2000E881F9810193F983E88306C0E885F98582
:103F3000802F0995892B31F48E819F8101969F8373
:103F40008E8302C00FEF1FEFC801DF91CF911F9149
:103F50000F910895FA01AA27283051F1203181F1FB
:103F6000E8946F936E7F6E5F7F4F8F4F9F4FAF4F81
:103F7000B1E03ED0B4E03CD0670F781F891F9A1F94
:103F8000A11D680F791F8A1F911DA11D6A0F711D48
:103F9000811D911DA11D20D009F468943F912AE054
:103FA000269F11243019305D3193DEF6CF0108953C
:103FB000462F4770405D4193B3E00FD0C9F7F6CF6D
:103FC000462F4F70405D4A3318F0495D31FD405235
:103FD000419302D0A9F7EACFB4E0A69597958795CB
:103FE00077956795BA95C9F70097610571050895AA
:103FF0009B01AC010A2E0694579547953795279556
:10400000BA95C9F7620F731F841F951FA01D0895ED
:04401000F894FFCF52
:1040140057656C636F6D65204372696D656E616C85
:10402400003A280057726F6E672055736572204EF0
:10403400616D6500436C69636B2064003132334108
:10404400420057726F6E672050617373776F7264AA
:104054000057656C636F6D20596F757373656600E7
:10406400323638344100312D4C65644F6E00322DA8
:104074004C65644F666600332D4C44524C656400B5
:10408400342D4D6F7265006C69676874203D20257E
:104094006420005072657373203120746F2045785A
:1040A400697400352D44434F4E00362D4443204F50
:1040B400464600372D41646A757374446300382D95
:1040C4004241434B0048454154203D202564200093
:1040D40055736572204E616D653A00506173737754
:1040E4006F7264203A00000000000000000000002D
:1040F4000E0011000200040004000000040000008F
:10410400010001001F000000060000000000000084
:104114001C0014001F00040004001C000000000028
:10412400150015001F00000000000000000004003E
:104134000E000A000F0012001E0000000000100014
:1041440018001C001F001C001800100000000000D4
:104154001B001F001F000E000400000000000A00E6
:104164003132334134353642373839432A302364C7
:0A4174003F065B4F666D7D077F6F0D
:00000001FF
